S01C00004632305F414D49545F50726F6A6563745F4D43312E7372656380
S11300000C942A000C9447000C9447000C9447006D
S11300100C9447000C9447000C9447000C94470040
S11300200C9447000C9447000C9447000C94470030
S11300300C9447000C9447000C9447000C94470020
S11300400C9447000C9447000C9447000C94470010
S11300500C94470011241FBECFE5D8E0DEBFCDBF0E
S113006010E0A0E6B0E0E8E7F4E002C005900D92ED
S1130070A036B107D9F720E0A0E6B0E001C01D9298
S1130080A036B207E1F70E94FF010C943A020C94E7
S11300900000442319F04130C9F10895813091F0F2
S11300A028F08230D9F0833029F108952AB381E011
S11300B090E002C0880F991F6A95E2F78095822329
S11300C08ABB089527B381E090E002C0880F991F8E
S11300D06A95E2F78095822387BB089524B381E073
S11300E090E002C0880F991F6A95E2F780958223F9
S11300F084BB089521B381E090E002C0880F991F6A
S11301006A95E2F78095822381BB0895813089F056
S113011028F08230C9F0833011F108952AB381E0C8
S113012090E002C0880F991F6A95E2F7822B8ABB80
S1130130089527B381E090E002C0880F991F6A9563
S1130140E2F7822B87BB089524B381E090E002C0DC
S1130150880F991F6A95E2F7822B84BB089521B317
S113016081E090E002C0880F991F6A95E2F7822B24
S113017081BB0895442319F04130C9F108958130B9
S113018091F028F08230D9F0833029F108952BB30F
S113019081E090E002C0880F991F6A95E2F780958C
S11301A082238BBB089528B381E090E002C0880FBE
S11301B0991F6A95E2F78095822388BB089525B339
S11301C081E090E002C0880F991F6A95E2F780955C
S11301D0822385BB089522B381E090E002C0880F9A
S11301E0991F6A95E2F78095822382BB0895813036
S11301F089F028F08230C9F0833011F108952BB3CF
S113020081E090E002C0880F991F6A95E2F7822B83
S11302108BBB089528B381E090E002C0880F991F3A
S11302206A95E2F7822B88BB089525B381E090E0BC
S113023002C0880F991F6A95E2F7822B85BB089547
S113024022B381E090E002C0880F991F6A95E2F71B
S1130250822B82BB0895CF93C82F40E061E081E0F8
S11302600E94BA0040E062E081E00E94BA0040E0EF
S113027063E081E00E94BA008BB39C2F907F8F7063
S1130280892B8BBB41E063E081E00E94BA008FE9D7
S11302909FE00197F1F700C0000040E063E081E0D7
S11302A00E94BA0020E1C29FC00111249BB39F7039
S11302B0892B8BBB41E063E081E00E94BA008FE9A7
S11302C09FE00197F1F700C0000040E063E081E0A7
S11302D00E94BA008FE39FE10197F1F700C000008C
S11302E0CF91089541E061E081E00E94490041E03E
S11302F062E081E00E94490041E063E081E00E9405
S1130300490041E064E080E00E94490041E065E08A
S113031080E00E94490041E066E080E00E944900DC
S113032041E067E080E00E9449002FEF81EE94E015
S1130330215080409040E1F700C0000082E00E941C
S11303402B0183E30E942B0182E30E942B0188E2AC
S11303500E942B018CE00E942B0181E00E942B0162
S113036086E00E942B010895CF93C82F41E061E0FD
S113037081E00E94BA0040E062E081E00E94BA009D
S113038040E063E081E00E94BA008BB39C2F907F31
S11303908F70892B8BBB41E063E081E00E94BA003F
S11303A08FE99FE00197F1F700C0000040E063E0AF
S11303B081E00E94BA0020E1C29FC00111249BB3D6
S11303C09F70892B8BBB41E063E081E00E94BA00FF
S11303D08FE99FE00197F1F700C0000040E063E07F
S11303E081E00E94BA008FE39FE10197F1F700C01A
S11303F00000CF91089581E00E942B0108950E948E
S11304002E020E941B020E9472010E94FB018FE3D4
S11304109CE90197F1F700C000000E943602C82F42
S11304208823A9F30E94FB018C2F0E94B4018C2F16
S11304300E942A02ECCF87B3806187BB87B38062B6
S113044087BB87B38F7B87BB87B3806887BB83E514
S11304508DB908958FB9779BFECF089588E18AB945
S113046086E880BD88E689B910BC08955F9BFECFFD
S10B04708CB10895F894FFCF4C
S9030000FC
