:100000000C942A000C9447000C9447000C94470071
:100010000C9447000C9447000C9447000C94470044
:100020000C9447000C9447000C9447000C94470034
:100030000C9447000C9447000C9447000C94470024
:100040000C9447000C9447000C9447000C94470014
:100050000C94470011241FBECFE5D8E0DEBFCDBF12
:1000600010E0A0E6B0E0E4E6F5E002C005900D92F5
:10007000A637B107D9F720E0A6E7B0E001C01D928E
:10008000A637B207E1F70E9440020C94B0020C942C
:100090000000442319F04130C9F10895813091F0F6
:1000A00028F08230D9F0833029F108952AB381E015
:1000B00090E002C0880F991F6A95E2F7809582232D
:1000C0008ABB089527B381E090E002C0880F991F92
:1000D0006A95E2F78095822387BB089524B381E077
:1000E00090E002C0880F991F6A95E2F780958223FD
:1000F00084BB089521B381E090E002C0880F991F6E
:100100006A95E2F78095822381BB0895813089F05A
:1001100028F08230C9F0833011F108952AB381E0CC
:1001200090E002C0880F991F6A95E2F7822B8ABB84
:10013000089527B381E090E002C0880F991F6A9567
:10014000E2F7822B87BB089524B381E090E002C0E0
:10015000880F991F6A95E2F7822B84BB089521B31B
:1001600081E090E002C0880F991F6A95E2F7822B28
:1001700081BB0895442319F04130C9F108958130BD
:1001800091F028F08230D9F0833029F108952BB313
:1001900081E090E002C0880F991F6A95E2F7809590
:1001A00082238BBB089528B381E090E002C0880FC2
:1001B000991F6A95E2F78095822388BB089525B33D
:1001C00081E090E002C0880F991F6A95E2F7809560
:1001D000822385BB089522B381E090E002C0880F9E
:1001E000991F6A95E2F78095822382BB089581303A
:1001F00089F028F08230C9F0833011F108952BB3D3
:1002000081E090E002C0880F991F6A95E2F7822B87
:100210008BBB089528B381E090E002C0880F991F3E
:100220006A95E2F7822B88BB089525B381E090E0C0
:1002300002C0880F991F6A95E2F7822B85BB08954B
:1002400022B381E090E002C0880F991F6A95E2F71F
:10025000822B82BB0895813089F028F08230C9F06A
:10026000833011F108952BB381E090E002C0880F34
:10027000991F6A95E2F782278BBB089528B381E026
:1002800090E002C0880F991F6A95E2F7822788BB29
:10029000089525B381E090E002C0880F991F6A9508
:1002A000E2F7822785BB089522B381E090E002C087
:1002B000880F991F6A95E2F7822782BB0895CF9332
:1002C000C82F40E061E081E00E94BA0040E062E0B7
:1002D00081E00E94BA0040E063E081E00E94BA0041
:1002E0008BB39C2F907F8F70892B8BBB41E063E099
:1002F00081E00E94BA008FE99FE00197F1F700C00A
:10030000000040E063E081E00E94BA0020E1C29F6B
:10031000C00111249BB39F70892B8BBB41E063E02C
:1003200081E00E94BA008FE99FE00197F1F700C0D9
:10033000000040E063E081E00E94BA008FE39FE1AB
:100340000197F1F700C00000CF91089541E061E00E
:1003500081E00E94490041E062E081E00E944900A2
:1003600041E063E081E00E94490041E064E080E018
:100370000E94490041E065E080E00E94490041E0C0
:1003800066E080E00E94490041E067E080E00E9472
:1003900049002FEF81EE94E0215080409040E1F73A
:1003A00000C0000082E00E945F0183E30E945F01C1
:1003B00082E30E945F0188E20E945F018CE00E945C
:1003C0005F0181E00E945F0186E00E945F01089565
:1003D000CF93C82F41E061E081E00E94BA0040E085
:1003E00062E081E00E94BA0040E063E081E00E94A8
:1003F000BA008BB39C2F907F8F70892B8BBB41E011
:1004000063E081E00E94BA008FE99FE00197F1F775
:1004100000C0000040E063E081E00E94BA0020E1FB
:10042000C29FC00111249BB39F70892B8BBB41E0FD
:1004300063E081E00E94BA008FE99FE00197F1F745
:1004400000C0000040E063E081E00E94BA008FE35A
:100450009FE10197F1F700C00000CF910895CF937D
:10046000DF93EC0103C00E94E8012196888181118D
:10047000FACFDF91CF91089581E00E945F01089546
:100480000E94A6010E943C020E949D020E947C02E2
:100490000E9487020E9492020E94AC02C82F882309
:1004A000D9F30E943C02C03351F480E690E00E94F0
:1004B0002F028C2F0E94E8010E948202EDCFC133EF
:1004C00051F480E690E00E942F028C2F0E94E801F8
:1004D0000E948D02E1CFC23351F480E690E00E9489
:1004E0002F028C2F0E94E8010E949802D5CF85E64A
:1004F00090E00E942F02D0CF41E062E082E00E94B3
:100500004900089562E082E00E942B01089541E0D5
:1005100067E082E00E944900089567E082E00E945F
:100520002B01089541E063E083E00E9449000895B3
:1005300063E083E00E942B01089587B38F7E87BB21
:1005400087B38F7D87BB87B3806487BB87B38F7783
:1005500087BB83E48DB90895779BFECF8FB1089553
:04056000F894FFCF3D
:100564004C45442000456E7465722076616C696464
:06057400204C454400008C
:00000001FF
